{
  "contractName": "VeriffKyc",
  "abi": [
    {
      "constant": false,
      "inputs": [],
      "name": "renounceOwnership",
      "outputs": [],
      "payable": false,
      "stateMutability": "nonpayable",
      "type": "function"
    },
    {
      "constant": true,
      "inputs": [],
      "name": "owner",
      "outputs": [
        {
          "name": "",
          "type": "address"
        }
      ],
      "payable": false,
      "stateMutability": "view",
      "type": "function"
    },
    {
      "constant": false,
      "inputs": [
        {
          "name": "_newOwner",
          "type": "address"
        }
      ],
      "name": "transferOwnership",
      "outputs": [],
      "payable": false,
      "stateMutability": "nonpayable",
      "type": "function"
    },
    {
      "anonymous": false,
      "inputs": [
        {
          "indexed": true,
          "name": "previousOwner",
          "type": "address"
        }
      ],
      "name": "OwnershipRenounced",
      "type": "event"
    },
    {
      "anonymous": false,
      "inputs": [
        {
          "indexed": true,
          "name": "previousOwner",
          "type": "address"
        },
        {
          "indexed": true,
          "name": "newOwner",
          "type": "address"
        }
      ],
      "name": "OwnershipTransferred",
      "type": "event"
    },
    {
      "constant": false,
      "inputs": [
        {
          "name": "_address",
          "type": "address"
        },
        {
          "name": "_status",
          "type": "uint8"
        }
      ],
      "name": "updateStatusOf",
      "outputs": [],
      "payable": false,
      "stateMutability": "nonpayable",
      "type": "function"
    },
    {
      "constant": true,
      "inputs": [
        {
          "name": "_address",
          "type": "address"
        }
      ],
      "name": "statusOf",
      "outputs": [
        {
          "name": "",
          "type": "uint8"
        }
      ],
      "payable": false,
      "stateMutability": "view",
      "type": "function"
    },
    {
      "constant": false,
      "inputs": [
        {
          "name": "_hash",
          "type": "bytes32"
        }
      ],
      "name": "registerAddressCountryCodeHash",
      "outputs": [],
      "payable": false,
      "stateMutability": "nonpayable",
      "type": "function"
    },
    {
      "constant": true,
      "inputs": [
        {
          "name": "_address",
          "type": "address"
        },
        {
          "name": "_countryCode",
          "type": "string"
        }
      ],
      "name": "encoded",
      "outputs": [
        {
          "name": "",
          "type": "bytes"
        }
      ],
      "payable": false,
      "stateMutability": "pure",
      "type": "function"
    },
    {
      "constant": true,
      "inputs": [
        {
          "name": "_address",
          "type": "address"
        },
        {
          "name": "_countryCode",
          "type": "string"
        }
      ],
      "name": "hash",
      "outputs": [
        {
          "name": "",
          "type": "bytes32"
        }
      ],
      "payable": false,
      "stateMutability": "pure",
      "type": "function"
    },
    {
      "constant": true,
      "inputs": [
        {
          "name": "_address",
          "type": "address"
        },
        {
          "name": "_countryCode",
          "type": "string"
        }
      ],
      "name": "countryVerified",
      "outputs": [
        {
          "name": "",
          "type": "bool"
        }
      ],
      "payable": false,
      "stateMutability": "view",
      "type": "function"
    }
  ],
  "bytecode": "0x608060405260008054600160a060020a0319163317905561080c806100256000396000f3006080604052600436106100985763ffffffff7c0100000000000000000000000000000000000000000000000000000000600035041663600019b1811461009d5780636011a7a114610179578063715018a614610193578063753c411f146101a85780638da5cb5b146101cf57806397a5d5b51461020057806398e4dec514610245578063a3ace177146102c0578063f2fde38b14610339575b600080fd5b3480156100a957600080fd5b5060408051602060046024803582810135601f8101859004850286018501909652858552610104958335600160a060020a031695369560449491939091019190819084018382808284375094975061035a9650505050505050565b6040805160208082528351818301528351919283929083019185019080838360005b8381101561013e578181015183820152602001610126565b50505050905090810190601f16801561016b5780820380516001836020036101000a031916815260200191505b509250505060405180910390f35b34801561018557600080fd5b506101916004356103f4565b005b34801561019f57600080fd5b50610191610426565b3480156101b457600080fd5b50610191600160a060020a036004351660ff60243516610492565b3480156101db57600080fd5b506101e4610518565b60408051600160a060020a039092168252519081900360200190f35b34801561020c57600080fd5b50610221600160a060020a0360043516610527565b6040518082600581111561023157fe5b60ff16815260200191505060405180910390f35b34801561025157600080fd5b5060408051602060046024803582810135601f81018590048502860185019096528585526102ac958335600160a060020a03169536956044949193909101919081908401838280828437509497506105459650505050505050565b604080519115158252519081900360200190f35b3480156102cc57600080fd5b5060408051602060046024803582810135601f8101859004850286018501909652858552610327958335600160a060020a031695369560449491939091019190819084018382808284375094975061064c9650505050505050565b60408051918252519081900360200190f35b34801561034557600080fd5b50610191600160a060020a0360043516610740565b606082826040516020018083600160a060020a0316600160a060020a03166c0100000000000000000000000002815260140182805190602001908083835b602083106103b75780518252601f199092019160209182019101610398565b6001836020036101000a03801982511681845116808217855250505050505090500192505050604051602081830303815290604052905092915050565b600054600160a060020a0316331461040b57600080fd5b6000908152600260205260409020805460ff19166001179055565b600054600160a060020a0316331461043d57600080fd5b60008054604051600160a060020a03909116917ff8df31144d9c2f0f6b59d69b8b98abd5459d07f2742c4df920b25aae33c6482091a26000805473ffffffffffffffffffffffffffffffffffffffff19169055565b600054600160a060020a031633146104a957600080fd5b6001600160a060020a03831660009081526001602052604090205460ff1660058111156104d257fe5b14156104dd57600080fd5b600160a060020a03821660009081526001602081905260409091208054839260ff199091169083600581111561050f57fe5b02179055505050565b600054600160a060020a031681565b600160a060020a031660009081526001602052604090205460ff1690565b60008083836040516020018083600160a060020a0316600160a060020a03166c0100000000000000000000000002815260140182805190602001908083835b602083106105a35780518252601f199092019160209182019101610584565b6001836020036101000a038019825116818451168082178552505050505050905001925050506040516020818303038152906040526040518082805190602001908083835b602083106106075780518252601f1990920191602091820191016105e8565b51815160209384036101000a6000190180199092169116179052604080519290940182900390912060009081526002909152919091205460ff16979650505050505050565b600082826040516020018083600160a060020a0316600160a060020a03166c0100000000000000000000000002815260140182805190602001908083835b602083106106a95780518252601f19909201916020918201910161068a565b6001836020036101000a038019825116818451168082178552505050505050905001925050506040516020818303038152906040526040518082805190602001908083835b6020831061070d5780518252601f1990920191602091820191016106ee565b5181516020939093036101000a600019018019909116921691909117905260405192018290039091209695505050505050565b600054600160a060020a0316331461075757600080fd5b61076081610763565b50565b600160a060020a038116151561077857600080fd5b60008054604051600160a060020a03808516939216917f8be0079c531659141344cd1fd0a4f28419497f9722a3daafe3b4186f6b6457e091a36000805473ffffffffffffffffffffffffffffffffffffffff1916600160a060020a03929092169190911790555600a165627a7a72305820da4ab94be58769db35a5b7e324e0069965505beaba980a906abb67a8a32f2cbc0029",
  "source": "pragma solidity ^0.4.24;\n\nimport \"zeppelin-solidity/contracts/ownership/Ownable.sol\";\n\ncontract VeriffKyc is Ownable {\n\n    enum Status {None, Approved, ResubmissionRequested, Declined, Expired, Abandoned}\n\n    mapping(address => Status) statusOfAddress;\n    mapping(bytes32 => bool) addressCountryCodeHashes;\n\n    function updateStatusOf(address _address, Status _status) public onlyOwner {\n        require(statusOfAddress[_address] != Status.Approved);\n\n        statusOfAddress[_address] = _status;\n    }\n\n    function statusOf(address _address) public view returns (Status) {\n        return statusOfAddress[_address];\n    }\n\n    function registerAddressCountryCodeHash(bytes32 _hash) public onlyOwner {\n        addressCountryCodeHashes[_hash] = true;\n    }\n\n    function encoded(address _address, string _countryCode) public pure returns (bytes) {\n        return abi.encodePacked(_address, _countryCode);\n    }\n\n    function hash(address _address, string _countryCode) public pure returns (bytes32) {\n        return keccak256(abi.encodePacked(_address, _countryCode));\n    }\n\n    function countryVerified(address _address, string _countryCode) public view returns (bool) {\n        bytes32 hash = keccak256(abi.encodePacked(_address, _countryCode));\n        return addressCountryCodeHashes[hash];\n    }\n}\n",
  "sourcePath": "/Users/yoonjae/SolidityProjects/tokenboost-veriff-kyc/contracts/VeriffKyc.sol",
  "compiler": {
    "name": "solc",
    "version": "0.4.24+commit.e67f0147.Emscripten.clang"
  },
  "schemaVersion": "2.0.1",
  "updatedAt": "2018-09-26T09:02:59.687Z"
}